{
  "contractName": "RetailerRole",
  "abi": [
    {
      "inputs": [],
      "payable": false,
      "stateMutability": "nonpayable",
      "type": "constructor"
    },
    {
      "constant": true,
      "inputs": [
        {
          "internalType": "address",
          "name": "account",
          "type": "address"
        }
      ],
      "name": "isRetailer",
      "outputs": [
        {
          "internalType": "bool",
          "name": "",
          "type": "bool"
        }
      ],
      "payable": false,
      "stateMutability": "view",
      "type": "function"
    },
    {
      "constant": false,
      "inputs": [
        {
          "internalType": "address",
          "name": "account",
          "type": "address"
        }
      ],
      "name": "addRetailer",
      "outputs": [],
      "payable": false,
      "stateMutability": "nonpayable",
      "type": "function"
    },
    {
      "constant": false,
      "inputs": [],
      "name": "renounceRetailer",
      "outputs": [],
      "payable": false,
      "stateMutability": "nonpayable",
      "type": "function"
    }
  ],
  "bytecode": "0x608060405234801561001057600080fd5b50610124806100206000396000f3fe6080604052348015600f57600080fd5b5060043610603c5760003560e01c80635da09b881460415780638ec4f50514609a578063db0e6a2f1460db575b600080fd5b608060048036036020811015605557600080fd5b81019080803573ffffffffffffffffffffffffffffffffffffffff16906020019092919050505060e3565b604051808215151515815260200191505060405180910390f35b60d96004803603602081101560ae57600080fd5b81019080803573ffffffffffffffffffffffffffffffffffffffff16906020019092919050505060ea565b005b60e160ed565b005b6000919050565b50565b56fea265627a7a723158208506155fb8d7060f0578431728cbc12bb1ea1faaa809ee52d6c4f0a6fd10467864736f6c63430005100032",
  "source": "pragma solidity ^0.5.16;\n\n// Import the library 'Roles'\nimport \"./Roles.sol\";\n\n// Define a contract 'RetailerRole' to manage this role - add, remove, check\ncontract RetailerRole {\n    // Define 2 events, one for Adding, and other for Removing\n\n    // Define a struct 'retailers' by inheriting from 'Roles' library, struct Role\n\n    // In the constructor make the address that deploys this contract the 1st retailer\n    constructor() public {}\n\n    // Define a modifier that checks to see if msg.sender has the appropriate role\n    modifier onlyRetailer() {\n        _;\n    }\n\n    // Define a function 'isRetailer' to check this role\n    function isRetailer(address account) public view returns (bool) {}\n\n    // Define a function 'addRetailer' that adds this role\n    function addRetailer(address account) public onlyRetailer {}\n\n    // Define a function 'renounceRetailer' to renounce this role\n    function renounceRetailer() public {}\n\n    // Define an internal function '_addRetailer' to add this role, called by 'addRetailer'\n    function _addRetailer(address account) internal {}\n\n    // Define an internal function '_removeRetailer' to remove this role, called by 'removeRetailer'\n    function _removeRetailer(address account) internal {}\n}\n",
  "sourcePath": "/Users/voas/src/blockchain/nd1309-Project-6b-Example-Template-master/project-6/contracts/coffeeaccesscontrol/RetailerRole.sol",
  "compiler": {
    "name": "solc",
    "version": "0.5.16+commit.9c3226ce.Emscripten.clang"
  },
  "schemaVersion": "3.3.3",
  "updatedAt": "2021-03-23T06:11:01.426Z",
  "networkType": "ethereum",
  "devdoc": {
    "methods": {}
  },
  "userdoc": {
    "methods": {}
  }
}